{
  "abi": [
    {
      "type": "constructor",
      "inputs": [
        {
          "name": "projectOwner",
          "type": "address",
          "internalType": "address"
        },
        {
          "name": "tokenAddress",
          "type": "address",
          "internalType": "address"
        },
        {
          "name": "pricePerToken",
          "type": "uint256",
          "internalType": "uint256"
        },
        {
          "name": "startTime",
          "type": "uint256",
          "internalType": "uint256"
        },
        {
          "name": "endTime",
          "type": "uint256",
          "internalType": "uint256"
        },
        {
          "name": "minInvest",
          "type": "uint256",
          "internalType": "uint256"
        },
        {
          "name": "maxInvest",
          "type": "uint256",
          "internalType": "uint256"
        },
        {
          "name": "hardCapAmount",
          "type": "uint256",
          "internalType": "uint256"
        },
        {
          "name": "softCapAmount",
          "type": "uint256",
          "internalType": "uint256"
        },
        {
          "name": "rewardRate",
          "type": "uint256",
          "internalType": "uint256"
        },
        {
          "name": "acceptedVAsset",
          "type": "address",
          "internalType": "address"
        },
        {
          "name": "_slpxAddress",
          "type": "address",
          "internalType": "address"
        }
      ],
      "stateMutability": "nonpayable"
    },
    {
      "type": "function",
      "name": "IDO_FEE_RATE",
      "inputs": [],
      "outputs": [
        {
          "name": "",
          "type": "uint256",
          "internalType": "uint256"
        }
      ],
      "stateMutability": "view"
    },
    {
      "type": "function",
      "name": "RATE_DECIMALS",
      "inputs": [],
      "outputs": [
        {
          "name": "",
          "type": "uint256",
          "internalType": "uint256"
        }
      ],
      "stateMutability": "view"
    },
    {
      "type": "function",
      "name": "getAcceptedVAsset",
      "inputs": [],
      "outputs": [
        {
          "name": "",
          "type": "address",
          "internalType": "address"
        }
      ],
      "stateMutability": "view"
    },
    {
      "type": "function",
      "name": "getAmountToTopUp",
      "inputs": [],
      "outputs": [
        {
          "name": "",
          "type": "uint256",
          "internalType": "uint256"
        }
      ],
      "stateMutability": "view"
    },
    {
      "type": "function",
      "name": "getPricePerToken",
      "inputs": [],
      "outputs": [
        {
          "name": "",
          "type": "uint256",
          "internalType": "uint256"
        }
      ],
      "stateMutability": "view"
    },
    {
      "type": "function",
      "name": "getProjectDetail",
      "inputs": [],
      "outputs": [
        {
          "name": "",
          "type": "tuple",
          "internalType": "struct ProjectPool.ProjectDetail",
          "components": [
            {
              "name": "projectId",
              "type": "uint256",
              "internalType": "uint256"
            },
            {
              "name": "projectOwner",
              "type": "address",
              "internalType": "address"
            },
            {
              "name": "tokenAddress",
              "type": "address",
              "internalType": "address"
            },
            {
              "name": "pricePerToken",
              "type": "uint256",
              "internalType": "uint256"
            },
            {
              "name": "startTime",
              "type": "uint256",
              "internalType": "uint256"
            },
            {
              "name": "endTime",
              "type": "uint256",
              "internalType": "uint256"
            },
            {
              "name": "raisedAmount",
              "type": "uint256",
              "internalType": "uint256"
            },
            {
              "name": "hardCapAmount",
              "type": "uint256",
              "internalType": "uint256"
            },
            {
              "name": "softCapAmount",
              "type": "uint256",
              "internalType": "uint256"
            },
            {
              "name": "minInvest",
              "type": "uint256",
              "internalType": "uint256"
            },
            {
              "name": "maxInvest",
              "type": "uint256",
              "internalType": "uint256"
            },
            {
              "name": "acceptedVAsset",
              "type": "address",
              "internalType": "address"
            },
            {
              "name": "rewardRate",
              "type": "uint256",
              "internalType": "uint256"
            }
          ]
        }
      ],
      "stateMutability": "view"
    },
    {
      "type": "function",
      "name": "getProjectEndTime",
      "inputs": [],
      "outputs": [
        {
          "name": "",
          "type": "uint256",
          "internalType": "uint256"
        }
      ],
      "stateMutability": "view"
    },
    {
      "type": "function",
      "name": "getProjectFullDetails",
      "inputs": [],
      "outputs": [
        {
          "name": "",
          "type": "tuple",
          "internalType": "struct ProjectPool.ProjectDetail",
          "components": [
            {
              "name": "projectId",
              "type": "uint256",
              "internalType": "uint256"
            },
            {
              "name": "projectOwner",
              "type": "address",
              "internalType": "address"
            },
            {
              "name": "tokenAddress",
              "type": "address",
              "internalType": "address"
            },
            {
              "name": "pricePerToken",
              "type": "uint256",
              "internalType": "uint256"
            },
            {
              "name": "startTime",
              "type": "uint256",
              "internalType": "uint256"
            },
            {
              "name": "endTime",
              "type": "uint256",
              "internalType": "uint256"
            },
            {
              "name": "raisedAmount",
              "type": "uint256",
              "internalType": "uint256"
            },
            {
              "name": "hardCapAmount",
              "type": "uint256",
              "internalType": "uint256"
            },
            {
              "name": "softCapAmount",
              "type": "uint256",
              "internalType": "uint256"
            },
            {
              "name": "minInvest",
              "type": "uint256",
              "internalType": "uint256"
            },
            {
              "name": "maxInvest",
              "type": "uint256",
              "internalType": "uint256"
            },
            {
              "name": "acceptedVAsset",
              "type": "address",
              "internalType": "address"
            },
            {
              "name": "rewardRate",
              "type": "uint256",
              "internalType": "uint256"
            }
          ]
        }
      ],
      "stateMutability": "view"
    },
    {
      "type": "function",
      "name": "getProjectHardCapAmount",
      "inputs": [],
      "outputs": [
        {
          "name": "",
          "type": "uint256",
          "internalType": "uint256"
        }
      ],
      "stateMutability": "view"
    },
    {
      "type": "function",
      "name": "getProjectMaxInvest",
      "inputs": [],
      "outputs": [
        {
          "name": "",
          "type": "uint256",
          "internalType": "uint256"
        }
      ],
      "stateMutability": "view"
    },
    {
      "type": "function",
      "name": "getProjectMinInvest",
      "inputs": [],
      "outputs": [
        {
          "name": "",
          "type": "uint256",
          "internalType": "uint256"
        }
      ],
      "stateMutability": "view"
    },
    {
      "type": "function",
      "name": "getProjectOwner",
      "inputs": [],
      "outputs": [
        {
          "name": "",
          "type": "address",
          "internalType": "address"
        }
      ],
      "stateMutability": "view"
    },
    {
      "type": "function",
      "name": "getProjectRaisedAmount",
      "inputs": [],
      "outputs": [
        {
          "name": "",
          "type": "uint256",
          "internalType": "uint256"
        }
      ],
      "stateMutability": "view"
    },
    {
      "type": "function",
      "name": "getProjectSoftCapAmount",
      "inputs": [],
      "outputs": [
        {
          "name": "",
          "type": "uint256",
          "internalType": "uint256"
        }
      ],
      "stateMutability": "view"
    },
    {
      "type": "function",
      "name": "getProjectSoftCapReached",
      "inputs": [],
      "outputs": [
        {
          "name": "",
          "type": "bool",
          "internalType": "bool"
        }
      ],
      "stateMutability": "view"
    },
    {
      "type": "function",
      "name": "getProjectStartTime",
      "inputs": [],
      "outputs": [
        {
          "name": "",
          "type": "uint256",
          "internalType": "uint256"
        }
      ],
      "stateMutability": "view"
    },
    {
      "type": "function",
      "name": "getProjectTokenAddress",
      "inputs": [],
      "outputs": [
        {
          "name": "",
          "type": "address",
          "internalType": "address"
        }
      ],
      "stateMutability": "view"
    },
    {
      "type": "function",
      "name": "getProjectTokenToppedUpAmt",
      "inputs": [],
      "outputs": [
        {
          "name": "",
          "type": "uint256",
          "internalType": "uint256"
        }
      ],
      "stateMutability": "view"
    },
    {
      "type": "function",
      "name": "getProjectWithdrawState",
      "inputs": [],
      "outputs": [
        {
          "name": "",
          "type": "bool",
          "internalType": "bool"
        }
      ],
      "stateMutability": "view"
    },
    {
      "type": "function",
      "name": "getRedeemAmount",
      "inputs": [],
      "outputs": [
        {
          "name": "",
          "type": "uint256",
          "internalType": "uint256"
        }
      ],
      "stateMutability": "view"
    },
    {
      "type": "function",
      "name": "getReserveInvestment",
      "inputs": [],
      "outputs": [
        {
          "name": "",
          "type": "uint256",
          "internalType": "uint256"
        }
      ],
      "stateMutability": "view"
    },
    {
      "type": "function",
      "name": "getRewardRate",
      "inputs": [],
      "outputs": [
        {
          "name": "",
          "type": "uint256",
          "internalType": "uint256"
        }
      ],
      "stateMutability": "view"
    },
    {
      "type": "function",
      "name": "getTimeLeftUntilProjecctEnd",
      "inputs": [],
      "outputs": [
        {
          "name": "",
          "type": "uint256",
          "internalType": "uint256"
        }
      ],
      "stateMutability": "view"
    },
    {
      "type": "function",
      "name": "getUserDepositAmount",
      "inputs": [
        {
          "name": "_userAdr",
          "type": "address",
          "internalType": "address"
        }
      ],
      "outputs": [
        {
          "name": "",
          "type": "uint256",
          "internalType": "uint256"
        }
      ],
      "stateMutability": "view"
    },
    {
      "type": "function",
      "name": "getVAssetAddress",
      "inputs": [],
      "outputs": [
        {
          "name": "",
          "type": "address",
          "internalType": "address"
        }
      ],
      "stateMutability": "view"
    },
    {
      "type": "function",
      "name": "getWithdrawAmount",
      "inputs": [],
      "outputs": [
        {
          "name": "",
          "type": "uint256",
          "internalType": "uint256"
        }
      ],
      "stateMutability": "view"
    },
    {
      "type": "function",
      "name": "investProject",
      "inputs": [
        {
          "name": "amount",
          "type": "uint256",
          "internalType": "uint256"
        }
      ],
      "outputs": [],
      "stateMutability": "nonpayable"
    },
    {
      "type": "function",
      "name": "isProjectActive",
      "inputs": [],
      "outputs": [
        {
          "name": "",
          "type": "bool",
          "internalType": "bool"
        }
      ],
      "stateMutability": "view"
    },
    {
      "type": "function",
      "name": "isProjectFullyToppedUp",
      "inputs": [],
      "outputs": [
        {
          "name": "",
          "type": "bool",
          "internalType": "bool"
        }
      ],
      "stateMutability": "view"
    },
    {
      "type": "function",
      "name": "isVAssetAcceptedByProject",
      "inputs": [
        {
          "name": "vAssetAddress",
          "type": "address",
          "internalType": "address"
        }
      ],
      "outputs": [
        {
          "name": "",
          "type": "bool",
          "internalType": "bool"
        }
      ],
      "stateMutability": "view"
    },
    {
      "type": "function",
      "name": "isWhitelisted",
      "inputs": [
        {
          "name": "_address",
          "type": "address",
          "internalType": "address"
        }
      ],
      "outputs": [
        {
          "name": "",
          "type": "bool",
          "internalType": "bool"
        }
      ],
      "stateMutability": "view"
    },
    {
      "type": "function",
      "name": "joinWhitelist",
      "inputs": [],
      "outputs": [],
      "stateMutability": "nonpayable"
    },
    {
      "type": "function",
      "name": "owner",
      "inputs": [],
      "outputs": [
        {
          "name": "",
          "type": "address",
          "internalType": "address"
        }
      ],
      "stateMutability": "view"
    },
    {
      "type": "function",
      "name": "redeemTokens",
      "inputs": [],
      "outputs": [],
      "stateMutability": "nonpayable"
    },
    {
      "type": "function",
      "name": "refundToken",
      "inputs": [],
      "outputs": [],
      "stateMutability": "nonpayable"
    },
    {
      "type": "function",
      "name": "renounceOwnership",
      "inputs": [],
      "outputs": [],
      "stateMutability": "nonpayable"
    },
    {
      "type": "function",
      "name": "slpxAddress",
      "inputs": [],
      "outputs": [
        {
          "name": "",
          "type": "address",
          "internalType": "address"
        }
      ],
      "stateMutability": "view"
    },
    {
      "type": "function",
      "name": "slpxContract",
      "inputs": [],
      "outputs": [
        {
          "name": "",
          "type": "address",
          "internalType": "contract ISlpx"
        }
      ],
      "stateMutability": "view"
    },
    {
      "type": "function",
      "name": "slpxWithdrawFund",
      "inputs": [],
      "outputs": [],
      "stateMutability": "nonpayable"
    },
    {
      "type": "function",
      "name": "transferOwnership",
      "inputs": [
        {
          "name": "newOwner",
          "type": "address",
          "internalType": "address"
        }
      ],
      "outputs": [],
      "stateMutability": "nonpayable"
    },
    {
      "type": "function",
      "name": "withdrawFund",
      "inputs": [],
      "outputs": [],
      "stateMutability": "nonpayable"
    },
    {
      "type": "function",
      "name": "withdrawed",
      "inputs": [],
      "outputs": [
        {
          "name": "",
          "type": "bool",
          "internalType": "bool"
        }
      ],
      "stateMutability": "view"
    },
    {
      "type": "event",
      "name": "Invested",
      "inputs": [
        {
          "name": "user",
          "type": "address",
          "indexed": true,
          "internalType": "address"
        },
        {
          "name": "projectId",
          "type": "uint256",
          "indexed": true,
          "internalType": "uint256"
        },
        {
          "name": "amount",
          "type": "uint256",
          "indexed": false,
          "internalType": "uint256"
        }
      ],
      "anonymous": false
    },
    {
      "type": "event",
      "name": "OwnershipTransferred",
      "inputs": [
        {
          "name": "previousOwner",
          "type": "address",
          "indexed": true,
          "internalType": "address"
        },
        {
          "name": "newOwner",
          "type": "address",
          "indexed": true,
          "internalType": "address"
        }
      ],
      "anonymous": false
    },
    {
      "type": "event",
      "name": "ProjectCreated",
      "inputs": [
        {
          "name": "projectOwner",
          "type": "address",
          "indexed": true,
          "internalType": "address"
        },
        {
          "name": "tokenAddress",
          "type": "address",
          "indexed": true,
          "internalType": "address"
        },
        {
          "name": "projectId",
          "type": "uint256",
          "indexed": false,
          "internalType": "uint256"
        },
        {
          "name": "pricePerToken",
          "type": "uint256",
          "indexed": false,
          "internalType": "uint256"
        },
        {
          "name": "startTime",
          "type": "uint256",
          "indexed": false,
          "internalType": "uint256"
        },
        {
          "name": "endTime",
          "type": "uint256",
          "indexed": false,
          "internalType": "uint256"
        }
      ],
      "anonymous": false
    },
    {
      "type": "event",
      "name": "ProjectWithdrawn",
      "inputs": [
        {
          "name": "user",
          "type": "address",
          "indexed": true,
          "internalType": "address"
        },
        {
          "name": "projectId",
          "type": "uint256",
          "indexed": true,
          "internalType": "uint256"
        },
        {
          "name": "amount",
          "type": "uint256",
          "indexed": false,
          "internalType": "uint256"
        }
      ],
      "anonymous": false
    },
    {
      "type": "event",
      "name": "Redeemed",
      "inputs": [
        {
          "name": "user",
          "type": "address",
          "indexed": true,
          "internalType": "address"
        },
        {
          "name": "projectId",
          "type": "uint256",
          "indexed": true,
          "internalType": "uint256"
        },
        {
          "name": "amount",
          "type": "uint256",
          "indexed": false,
          "internalType": "uint256"
        }
      ],
      "anonymous": false
    },
    {
      "type": "event",
      "name": "Whitelisted",
      "inputs": [
        {
          "name": "user",
          "type": "address",
          "indexed": true,
          "internalType": "address"
        },
        {
          "name": "projectId",
          "type": "uint256",
          "indexed": true,
          "internalType": "uint256"
        }
      ],
      "anonymous": false
    },
    {
      "type": "error",
      "name": "AlreadyWhitelisted",
      "inputs": []
    },
    {
      "type": "error",
      "name": "AlreadyWithdraw",
      "inputs": []
    },
    {
      "type": "error",
      "name": "ERC20TransferFailed",
      "inputs": []
    },
    {
      "type": "error",
      "name": "HardCapExceeded",
      "inputs": []
    },
    {
      "type": "error",
      "name": "InvalidProjectHardCap",
      "inputs": []
    },
    {
      "type": "error",
      "name": "InvalidProjectId",
      "inputs": []
    },
    {
      "type": "error",
      "name": "InvalidProjectMaxInvestment",
      "inputs": []
    },
    {
      "type": "error",
      "name": "InvalidProjectMinInvestment",
      "inputs": []
    },
    {
      "type": "error",
      "name": "InvalidProjectSoftCap",
      "inputs": []
    },
    {
      "type": "error",
      "name": "InvalidProjectTimeframe",
      "inputs": []
    },
    {
      "type": "error",
      "name": "MaxInvestmentExceeded",
      "inputs": []
    },
    {
      "type": "error",
      "name": "MinInvestmentNotReached",
      "inputs": []
    },
    {
      "type": "error",
      "name": "NotEnoughERC20Allowance",
      "inputs": []
    },
    {
      "type": "error",
      "name": "NotProjectOwner",
      "inputs": []
    },
    {
      "type": "error",
      "name": "OwnableInvalidOwner",
      "inputs": [
        {
          "name": "owner",
          "type": "address",
          "internalType": "address"
        }
      ]
    },
    {
      "type": "error",
      "name": "OwnableUnauthorizedAccount",
      "inputs": [
        {
          "name": "account",
          "type": "address",
          "internalType": "address"
        }
      ]
    },
    {
      "type": "error",
      "name": "ProjectIDOHasEnded",
      "inputs": []
    },
    {
      "type": "error",
      "name": "ProjectIDOHasNotStarted",
      "inputs": []
    },
    {
      "type": "error",
      "name": "ProjectStillActive",
      "inputs": []
    },
    {
      "type": "error",
      "name": "ReentrancyGuardReentrantCall",
      "inputs": []
    },
    {
      "type": "error",
      "name": "SoftCapNotReach",
      "inputs": []
    },
    {
      "type": "error",
      "name": "TokenForSaleMustBePositive",
      "inputs": []
    },
    {
      "type": "error",
      "name": "TokenPriceMustBePositive",
      "inputs": []
    },
    {
      "type": "error",
      "name": "UserNotWhitelisted",
      "inputs": []
    },
    {
      "type": "error",
      "name": "ZeroAddress",
      "inputs": []
    }
  ],
  "bytecode": {
    "object": "0x60c06040523480156200001157600080fd5b50604051620018593803806200185983398101604081905262000034916200023b565b8b6001600160a01b0381166200006457604051631e4fbdf760e01b81526000600482015260240160405180910390fd5b6200006f81620001ce565b50600180558b6001600160a01b0381166200009d5760405163d92e233d60e01b815260040160405180910390fd5b851580620000ab5750848611155b15620000ca57604051636cbdb61f60e01b815260040160405180910390fd5b60008511620000ec57604051635046b82960e11b815260040160405180910390fd5b861580620000f957508587115b806200010457508787105b1562000123576040516301c9409d60e31b815260040160405180910390fd5b600088116200014557604051630c8b846560e41b815260040160405180910390fd5b50600380546001600160a01b03199081166001600160a01b039e8f16179091556004805482169c8e169c909c17909b556005999099556006979097556007959095556000600855600b93909355600c91909155600955600a55600d805490941691851691909117909255600e91909155600f805460ff1916905516608081905260a052620002e8565b600080546001600160a01b038381166001600160a01b0319831681178455604051919092169283917f8be0079c531659141344cd1fd0a4f28419497f9722a3daafe3b4186f6b6457e09190a35050565b80516001600160a01b03811681146200023657600080fd5b919050565b6000806000806000806000806000806000806101808d8f0312156200025f57600080fd5b6200026a8d6200021e565b9b506200027a60208e016200021e565b9a5060408d0151995060608d0151985060808d0151975060a08d0151965060c08d0151955060e08d015194506101008d015193506101208d01519250620002c56101408e016200021e565b9150620002d66101608e016200021e565b90509295989b509295989b509295989b565b60805160a05161154462000315600039600081816103720152610a1c015260006104ad01526115446000f3fe608060405234801561001057600080fd5b506004361061025e5760003560e01c80639efda4d711610146578063ca1e9738116100c3578063e9a9c50c11610087578063e9a9c50c14610472578063f2fde38b1461047a578063f4390f021461048d578063f55bb36c14610495578063f5e430c5146104a0578063f728186d146104a857600080fd5b8063ca1e973814610427578063ccb9dc8b1461042f578063e07fa3c114610437578063e6d685951461043f578063e89b1fec1461045057600080fd5b8063b3017fd01161010a578063b3017fd0146103fc578063b3a4faa214610404578063b5697a1c14610417578063be9d323c1461041f578063bfccc6581461030f57600080fd5b80639efda4d7146103d4578063a9518e88146103dc578063a96fd5d8146103e4578063a9c51b70146103ec578063acf8d7ab146103f457600080fd5b806366c561f8116101df5780638531d731116101a35780638531d7311461036d5780638da5cb5b1461039457806395c09054146103a55780639953c210146103ba5780639a797128146103c75780639dbf77c1146103a557600080fd5b806366c561f81461033c578063715018a6146103445780637cbb7b461461034c5780637e1a37861461035d5780637e53614f1461036557600080fd5b80634d900f63116102265780634d900f63146102f35780635a604c52146102fd5780635cb732be146103055780635eb5e2f41461030f5780635f791a151461033457600080fd5b8063027932f9146102635780630cec2a761461027e5780630fd4a2a9146102a75780633af32abf146102af578063465a5044146102eb575b600080fd5b61026b6104cf565b6040519081526020015b60405180910390f35b61026b61028c366004611236565b6001600160a01b031660009081526010602052604090205490565b60095461026b565b6102db6102bd366004611236565b6001600160a01b031660009081526011602052604090205460ff1690565b6040519015158152602001610275565b61026b610516565b60075442116102db565b61026b600481565b61030d6105c1565b005b600d546001600160a01b03165b6040516001600160a01b039091168152602001610275565b600b5461026b565b60075461026b565b61030d6106f8565b6004546001600160a01b031661031c565b600e5461026b565b61026b61070c565b61031c7f000000000000000000000000000000000000000000000000000000000000000081565b6000546001600160a01b031661031c565b6103ad610722565b604051610275919061125f565b600a5460085410156102db565b600f546102db9060ff1681565b61026b610833565b61030d6108b1565b600c5461026b565b600a5461026b565b61030d61097e565b60085461026b565b61030d610412366004611321565b610b19565b61026b603281565b61026b610c51565b60055461026b565b61026b610c8d565b61030d610c9f565b6003546001600160a01b031661031c565b6102db61045e366004611236565b600d546001600160a01b0391821691161490565b61030d610e3a565b61030d610488366004611236565b610fb0565b60065461026b565b600f5460ff166102db565b6102db610ff0565b61031c7f000000000000000000000000000000000000000000000000000000000000000081565b6000806104db60085490565b905060006104eb6004600a611436565b6104f6603284611442565b6105009190611459565b9050600061050e828461147b565b949350505050565b60008061052260095490565b905060006105386004546001600160a01b031690565b6001600160a01b031663313ce5676040518163ffffffff1660e01b8152600401602060405180830381865afa158015610575573d6000803e3d6000fd5b505050506040513d601f19601f82011682018060405250810190610599919061148e565b6005549091506000906105ad83600a6114b1565b6105b79085611442565b61050e9190611459565b3360008181526011602052604090205460ff166105f157604051632ba75b2560e01b815260040160405180910390fd5b6105f9611011565b6000336001600160a01b0381811660008181526010602052604080822054600d54915163a9059cbb60e01b81526004810194909452602484018190529495509092169063a9059cbb906044016020604051808303816000875af1158015610664573d6000803e3d6000fd5b505050506040513d601f19601f8201168201806040525081019061068891906114c0565b9050806106a857604051633c9fd93960e21b815260040160405180910390fd5b6002546040518381526001600160a01b038516907ff3a670cd3af7d64b488926880889d08a8585a138ff455227af6737339a1ec2629060200160405180910390a35050506106f560018055565b50565b61070061103b565b61070a6000611068565b565b60075460009061071d90429061147b565b905090565b6107a8604051806101a001604052806000815260200160006001600160a01b0316815260200160006001600160a01b03168152602001600081526020016000815260200160008152602001600081526020016000815260200160008152602001600081526020016000815260200160006001600160a01b03168152602001600081525090565b50604080516101a08101825260025481526003546001600160a01b0390811660208301526004548116928201929092526005546060820152600654608082015260075460a082015260085460c082015260095460e0820152600a54610100820152600b54610120820152600c54610140820152600d54909116610160820152600e5461018082015290565b60006108476004546001600160a01b031690565b6040516370a0823160e01b81523060048201526001600160a01b0391909116906370a0823190602401602060405180830381865afa15801561088d573d6000803e3d6000fd5b505050506040513d601f19601f8201168201806040525081019061071d91906114e2565b6108b9611011565b3360008181526011602052604090205460ff16156108ea5760405163b73e95e160e01b815260040160405180910390fd5b6009546008541061090e57604051631c4af3c960e11b815260040160405180910390fd5b60025460405133907f6ea640312e182de387819fbeb13be00db3171a445412852248559054871c419990600090a36001600160a01b0381166000908152601160205260408120805460ff19166001179055610967610c8d565b905061097333826110b8565b505061070a60018055565b6003546001600160a01b0316336001600160a01b0316146109b257604051637c2411e960e01b815260040160405180910390fd5b6109ba611011565b600a5460085410156109de576040516250b2a360e81b815260040160405180910390fd5b600f5460ff1615610a025760405163029c9c0560e61b815260040160405180910390fd5b6000610a0c6104cf565b600d549091506001600160a01b037f0000000000000000000000000000000000000000000000000000000000000000811691634899b9a8911683610a4d3390565b60405160e085901b6001600160e01b03191681526001600160a01b03938416600482015260248101929092529091166044820152606401600060405180830381600087803b158015610a9e57600080fd5b505af1158015610ab2573d6000803e3d6000fd5b5050600f805460ff191660011790555050600254610acd3390565b6001600160a01b03167f2a21ff03a0e8112a6f7dd57a7a1e07b922c2cb6b55fb1f3ef2e7a0084eaa6dc283604051610b0791815260200190565b60405180910390a35061070a60018055565b3360008181526011602052604090205460ff16610b4957604051632ba75b2560e01b815260040160405180910390fd5b610b51611011565b336000610b5c610722565b90506000610b7f836001600160a01b031660009081526010602052604090205490565b90506000610b8d86836114fb565b9050826101200151811015610bb55760405163753f384d60e11b815260040160405180910390fd5b826101400151811115610bdb57604051631ba05a5760e31b815260040160405180910390fd5b82516040518781526001600160a01b038616907f9e9d071824fd57d062ca63fd8b786d8da48a6807eebbcb2d83f9e8d21398e28c9060200160405180910390a38060026006016000828254610c3091906114fb565b90915550610c40905084876110b8565b50505050610c4d60018055565b5050565b336000908152601060205260408120546005548290610c726004600a611436565b610c7c9084611442565b610c869190611459565b9392505050565b600b5460009061071d90600290611459565b6003546001600160a01b0316336001600160a01b031614610cd357604051637c2411e960e01b815260040160405180910390fd5b610cdb611011565b600a546008541015610cff576040516250b2a360e81b815260040160405180910390fd5b600f5460ff1615610d235760405163029c9c0560e61b815260040160405180910390fd5b6000610d2d6104cf565b600d549091506000906001600160a01b031663a9059cbb336040516001600160e01b031960e084901b1681526001600160a01b039091166004820152602481018590526044016020604051808303816000875af1158015610d92573d6000803e3d6000fd5b505050506040513d601f19601f82011682018060405250810190610db691906114c0565b905080610dd657604051633c9fd93960e21b815260040160405180910390fd5b600f805460ff19166001179055600254610ded3390565b6001600160a01b03167f2a21ff03a0e8112a6f7dd57a7a1e07b922c2cb6b55fb1f3ef2e7a0084eaa6dc284604051610e2791815260200190565b60405180910390a3505061070a60018055565b600a546008541015610e5e576040516250b2a360e81b815260040160405180910390fd5b3360008181526011602052604090205460ff16610e8e57604051632ba75b2560e01b815260040160405180910390fd5b610e96611011565b336000610ea1610c51565b600e54909150600090610eb49083611442565b90506000610ec282846114fb565b6004805460405163a9059cbb60e01b81526001600160a01b03888116938201939093526024810184905292935060009291169063a9059cbb906044016020604051808303816000875af1158015610f1d573d6000803e3d6000fd5b505050506040513d601f19601f82011682018060405250810190610f4191906114c0565b905080610f6157604051633c9fd93960e21b815260040160405180910390fd5b6002546040518381526001600160a01b038716907ff3a670cd3af7d64b488926880889d08a8585a138ff455227af6737339a1ec2629060200160405180910390a350505050506106f560018055565b610fb861103b565b6001600160a01b038116610fe757604051631e4fbdf760e01b8152600060048201526024015b60405180910390fd5b6106f581611068565b600080610ffb610833565b90506000611007610516565b9091101592915050565b60026001540361103457604051633ee5aeb560e01b815260040160405180910390fd5b6002600155565b6000546001600160a01b0316331461070a5760405163118cdaa760e01b8152336004820152602401610fde565b600080546001600160a01b038381166001600160a01b0319831681178455604051919092169283917f8be0079c531659141344cd1fd0a4f28419497f9722a3daafe3b4186f6b6457e09190a35050565b60006110cc600d546001600160a01b031690565b604051636eb1769f60e11b81526001600160a01b03858116600483015230602483015291925060009183169063dd62ed3e90604401602060405180830381865afa15801561111e573d6000803e3d6000fd5b505050506040513d601f19601f8201168201806040525081019061114291906114e2565b9050828110156111655760405163bd0a4d7160e01b815260040160405180910390fd5b6001600160a01b0384166000908152601060205260408120805485929061118d9084906114fb565b90915550506040516323b872dd60e01b81526001600160a01b03858116600483015230602483015260448201859052600091908416906323b872dd906064016020604051808303816000875af11580156111eb573d6000803e3d6000fd5b505050506040513d601f19601f8201168201806040525081019061120f91906114c0565b90508061122f57604051633c9fd93960e21b815260040160405180910390fd5b5050505050565b60006020828403121561124857600080fd5b81356001600160a01b0381168114610c8657600080fd5b815181526020808301516101a0830191611283908401826001600160a01b03169052565b50604083015161129e60408401826001600160a01b03169052565b50606083015160608301526080830151608083015260a083015160a083015260c083015160c083015260e083015160e083015261010080840151818401525061012080840151818401525061014080840151818401525061016080840151611310828501826001600160a01b03169052565b505061018092830151919092015290565b60006020828403121561133357600080fd5b5035919050565b634e487b7160e01b600052601160045260246000fd5b600181815b8085111561138b5781600019048211156113715761137161133a565b8085161561137e57918102915b93841c9390800290611355565b509250929050565b6000826113a257506001611430565b816113af57506000611430565b81600181146113c557600281146113cf576113eb565b6001915050611430565b60ff8411156113e0576113e061133a565b50506001821b611430565b5060208310610133831016604e8410600b841016171561140e575081810a611430565b6114188383611350565b806000190482111561142c5761142c61133a565b0290505b92915050565b6000610c868383611393565b80820281158282048414176114305761143061133a565b60008261147657634e487b7160e01b600052601260045260246000fd5b500490565b818103818111156114305761143061133a565b6000602082840312156114a057600080fd5b815160ff81168114610c8657600080fd5b6000610c8660ff841683611393565b6000602082840312156114d257600080fd5b81518015158114610c8657600080fd5b6000602082840312156114f457600080fd5b5051919050565b808201808211156114305761143061133a56fea2646970667358221220b5f78d2b690798bc9febf179d7124073f1ee152f9ae39277545fcde97438da3764736f6c63430008180033",
    "linkReferences": {}
  },
  "methodIdentifiers": {
    "IDO_FEE_RATE()": "b5697a1c",
    "RATE_DECIMALS()": "5a604c52",
    "getAcceptedVAsset()": "5eb5e2f4",
    "getAmountToTopUp()": "465a5044",
    "getPricePerToken()": "ca1e9738",
    "getProjectDetail()": "9dbf77c1",
    "getProjectEndTime()": "66c561f8",
    "getProjectFullDetails()": "95c09054",
    "getProjectHardCapAmount()": "0fd4a2a9",
    "getProjectMaxInvest()": "a96fd5d8",
    "getProjectMinInvest()": "5f791a15",
    "getProjectOwner()": "e6d68595",
    "getProjectRaisedAmount()": "b3017fd0",
    "getProjectSoftCapAmount()": "a9c51b70",
    "getProjectSoftCapReached()": "9953c210",
    "getProjectStartTime()": "f4390f02",
    "getProjectTokenAddress()": "7cbb7b46",
    "getProjectTokenToppedUpAmt()": "9efda4d7",
    "getProjectWithdrawState()": "f55bb36c",
    "getRedeemAmount()": "be9d323c",
    "getReserveInvestment()": "ccb9dc8b",
    "getRewardRate()": "7e1a3786",
    "getTimeLeftUntilProjecctEnd()": "7e53614f",
    "getUserDepositAmount(address)": "0cec2a76",
    "getVAssetAddress()": "bfccc658",
    "getWithdrawAmount()": "027932f9",
    "investProject(uint256)": "b3a4faa2",
    "isProjectActive()": "4d900f63",
    "isProjectFullyToppedUp()": "f5e430c5",
    "isVAssetAcceptedByProject(address)": "e89b1fec",
    "isWhitelisted(address)": "3af32abf",
    "joinWhitelist()": "a9518e88",
    "owner()": "8da5cb5b",
    "redeemTokens()": "e9a9c50c",
    "refundToken()": "5cb732be",
    "renounceOwnership()": "715018a6",
    "slpxAddress()": "f728186d",
    "slpxContract()": "8531d731",
    "slpxWithdrawFund()": "acf8d7ab",
    "transferOwnership(address)": "f2fde38b",
    "withdrawFund()": "e07fa3c1",
    "withdrawed()": "9a797128"
  },
  "id": 0
}